{
  "contractName": "Elections",
  "abi": [
    {
      "inputs": [],
      "stateMutability": "nonpayable",
      "type": "constructor"
    },
    {
      "anonymous": false,
      "inputs": [
        {
          "indexed": true,
          "internalType": "uint256",
          "name": "firstPlace",
          "type": "uint256"
        },
        {
          "indexed": true,
          "internalType": "uint256",
          "name": "secondPlace",
          "type": "uint256"
        },
        {
          "indexed": true,
          "internalType": "uint256",
          "name": "thirdPlace",
          "type": "uint256"
        }
      ],
      "name": "newChallenger",
      "type": "event"
    },
    {
      "inputs": [
        {
          "internalType": "address",
          "name": "",
          "type": "address"
        }
      ],
      "name": "registredVoters",
      "outputs": [
        {
          "internalType": "bool",
          "name": "",
          "type": "bool"
        }
      ],
      "stateMutability": "view",
      "type": "function",
      "constant": true
    },
    {
      "inputs": [
        {
          "internalType": "address",
          "name": "a",
          "type": "address"
        }
      ],
      "name": "balance",
      "outputs": [
        {
          "internalType": "uint256",
          "name": "",
          "type": "uint256"
        }
      ],
      "stateMutability": "view",
      "type": "function",
      "constant": true
    },
    {
      "inputs": [],
      "name": "register",
      "outputs": [],
      "stateMutability": "nonpayable",
      "type": "function"
    },
    {
      "inputs": [
        {
          "internalType": "address",
          "name": "to",
          "type": "address"
        },
        {
          "internalType": "uint256",
          "name": "amount",
          "type": "uint256"
        }
      ],
      "name": "transferWKNDBetweenVoters",
      "outputs": [],
      "stateMutability": "nonpayable",
      "type": "function"
    },
    {
      "inputs": [
        {
          "internalType": "uint256",
          "name": "candidateId",
          "type": "uint256"
        },
        {
          "internalType": "uint256",
          "name": "amount",
          "type": "uint256"
        }
      ],
      "name": "vote",
      "outputs": [],
      "stateMutability": "nonpayable",
      "type": "function"
    },
    {
      "inputs": [],
      "name": "winningCandidates",
      "outputs": [
        {
          "internalType": "uint256",
          "name": "",
          "type": "uint256"
        },
        {
          "internalType": "uint256",
          "name": "",
          "type": "uint256"
        },
        {
          "internalType": "uint256",
          "name": "",
          "type": "uint256"
        }
      ],
      "stateMutability": "view",
      "type": "function",
      "constant": true
    }
  ],
  "bytecode": "0x6080604052625b8d8060005534801561001757600080fd5b5060005460405161002790610093565b61003191906100af565b604051809103906000f08015801561004d573d6000803e3d6000fd5b50600160006101000a81548173ffffffffffffffffffffffffffffffffffffffff021916908373ffffffffffffffffffffffffffffffffffffffff1602179055506100d4565b611a9080610f0b83390190565b6100a9816100ca565b82525050565b60006020820190506100c460008301846100a0565b92915050565b6000819050919050565b610e28806100e36000396000f3fe608060405234801561001057600080fd5b50600436106100625760003560e01c80630c23c866146100675780631aa3a00814610083578063377968d41461008d578063b384abef146100ad578063e3d670d7146100c9578063fe301118146100f9575b600080fd5b610081600480360381019061007c919061096f565b610129565b005b61008b610217565b005b61009561038b565b6040516100a493929190610c06565b60405180910390f35b6100c760048036038101906100c291906109dc565b6103a4565b005b6100e360048036038101906100de9190610942565b61067b565b6040516100f09190610beb565b60405180910390f35b610113600480360381019061010e9190610942565b61072f565b6040516101209190610b50565b60405180910390f35b8060008111801561014257508061013f3361067b565b10155b610181576040517f08c379a000000000000000000000000000000000000000000000000000000000815260040161017890610b8b565b60405180910390fd5b600160009054906101000a900473ffffffffffffffffffffffffffffffffffffffff1673ffffffffffffffffffffffffffffffffffffffff1663756435533385856040518463ffffffff1660e01b81526004016101e093929190610af0565b600060405180830381600087803b1580156101fa57600080fd5b505af115801561020e573d6000803e3d6000fd5b50505050505050565b600260003373ffffffffffffffffffffffffffffffffffffffff1673ffffffffffffffffffffffffffffffffffffffff16815260200190815260200160002060009054906101000a900460ff16156102a4576040517f08c379a000000000000000000000000000000000000000000000000000000000815260040161029b90610bcb565b60405180910390fd5b6001600260003373ffffffffffffffffffffffffffffffffffffffff1673ffffffffffffffffffffffffffffffffffffffff16815260200190815260200160002060006101000a81548160ff021916908315150217905550600160009054906101000a900473ffffffffffffffffffffffffffffffffffffffff1673ffffffffffffffffffffffffffffffffffffffff1663ad6f6dd9336040518263ffffffff1660e01b81526004016103579190610ad5565b600060405180830381600087803b15801561037157600080fd5b505af1158015610385573d6000803e3d6000fd5b50505050565b6000806000600554600654600754925092509250909192565b806000811180156103bd5750806103ba3361067b565b10155b6103fc576040517f08c379a00000000000000000000000000000000000000000000000000000000081526004016103f390610b8b565b60405180910390fd5b600260003373ffffffffffffffffffffffffffffffffffffffff1673ffffffffffffffffffffffffffffffffffffffff16815260200190815260200160002060009054906101000a900460ff16610488576040517f08c379a000000000000000000000000000000000000000000000000000000000815260040161047f90610b6b565b60405180910390fd5b600360003373ffffffffffffffffffffffffffffffffffffffff1673ffffffffffffffffffffffffffffffffffffffff16815260200190815260200160002060009054906101000a900460ff1615610515576040517f08c379a000000000000000000000000000000000000000000000000000000000815260040161050c90610bab565b60405180910390fd5b8160046000858152602001908152602001600020546105349190610c4e565b60046000858152602001908152602001600020819055506001600360003373ffffffffffffffffffffffffffffffffffffffff1673ffffffffffffffffffffffffffffffffffffffff16815260200190815260200160002060006101000a81548160ff021916908315150217905550600160009054906101000a900473ffffffffffffffffffffffffffffffffffffffff1673ffffffffffffffffffffffffffffffffffffffff16638568523a33846040518363ffffffff1660e01b8152600401610600929190610b27565b600060405180830381600087803b15801561061a57600080fd5b505af115801561062e573d6000803e3d6000fd5b5050505061063b8361074f565b15610676576007546006546005547fca9df10ff980f7c2a7b678043c4a308e257d447841652bc8e0e0d174e0bf8e5760405160405180910390a45b505050565b6000600160009054906101000a900473ffffffffffffffffffffffffffffffffffffffff1673ffffffffffffffffffffffffffffffffffffffff1663e3d670d7836040518263ffffffff1660e01b81526004016106d89190610ad5565b60206040518083038186803b1580156106f057600080fd5b505afa158015610704573d6000803e3d6000fd5b505050506040513d601f19601f8201168201806040525081019061072891906109af565b9050919050565b60026020528060005260406000206000915054906101000a900460ff1681565b6000806005549050600060065490506000600754905060006004600087815260200190815260200160002054905061078786826107c7565b6005548414158061079a57506006548314155b806107a757506007548214155b156107b95760019450505050506107c2565b60009450505050505b919050565b600854811115610832576005548214156107ec576107e76001838361088e565b61082d565b60065482141561080f576107fe6108db565b61080a6001838361088e565b61082c565b6108176108ef565b61081f6108db565b61082b6001838361088e565b5b5b61088a565b60095481111561087157600654821415610857576108526002838361088e565b61086c565b61085f6108ef565b61086b6002838361088e565b5b610889565b600a54811115610888576108876003838361088e565b5b5b5b5050565b60018314156108aa5781600581905550806008819055506108d6565b60028314156108c65781600681905550806009819055506108d5565b8160078190555080600a819055505b5b505050565b600554600681905550600854600981905550565b600654600781905550600954600a81905550565b60008135905061091281610dc4565b92915050565b60008135905061092781610ddb565b92915050565b60008151905061093c81610ddb565b92915050565b60006020828403121561095857610957610d1b565b5b600061096684828501610903565b91505092915050565b6000806040838503121561098657610985610d1b565b5b600061099485828601610903565b92505060206109a585828601610918565b9150509250929050565b6000602082840312156109c5576109c4610d1b565b5b60006109d38482850161092d565b91505092915050565b600080604083850312156109f3576109f2610d1b565b5b6000610a0185828601610918565b9250506020610a1285828601610918565b9150509250929050565b610a2581610ca4565b82525050565b610a3481610cb6565b82525050565b6000610a47601783610c3d565b9150610a5282610d20565b602082019050919050565b6000610a6a601c83610c3d565b9150610a7582610d49565b602082019050919050565b6000610a8d601783610c3d565b9150610a9882610d72565b602082019050919050565b6000610ab0601783610c3d565b9150610abb82610d9b565b602082019050919050565b610acf81610ce2565b82525050565b6000602082019050610aea6000830184610a1c565b92915050565b6000606082019050610b056000830186610a1c565b610b126020830185610a1c565b610b1f6040830184610ac6565b949350505050565b6000604082019050610b3c6000830185610a1c565b610b496020830184610ac6565b9392505050565b6000602082019050610b656000830184610a2b565b92915050565b60006020820190508181036000830152610b8481610a3a565b9050919050565b60006020820190508181036000830152610ba481610a5d565b9050919050565b60006020820190508181036000830152610bc481610a80565b9050919050565b60006020820190508181036000830152610be481610aa3565b9050919050565b6000602082019050610c006000830184610ac6565b92915050565b6000606082019050610c1b6000830186610ac6565b610c286020830185610ac6565b610c356040830184610ac6565b949350505050565b600082825260208201905092915050565b6000610c5982610ce2565b9150610c6483610ce2565b9250827fffffffffffffffffffffffffffffffffffffffffffffffffffffffffffffffff03821115610c9957610c98610cec565b5b828201905092915050565b6000610caf82610cc2565b9050919050565b60008115159050919050565b600073ffffffffffffffffffffffffffffffffffffffff82169050919050565b6000819050919050565b7f4e487b7100000000000000000000000000000000000000000000000000000000600052601160045260246000fd5b600080fd5b7f566f746572206d75737420626520726567697374726564000000000000000000600082015250565b7f446f6e74206861766520656e6f75676820574b4e4420746f6b656e7300000000600082015250565b7f566f7465722068617320616c726561647920766f746564000000000000000000600082015250565b7f416c72656164792072656769737472656420766f746572000000000000000000600082015250565b610dcd81610ca4565b8114610dd857600080fd5b50565b610de481610ce2565b8114610def57600080fd5b5056fea26469706673582212206471b697de83c631775120f5c95d4e18d995897be364fad89b71fbb47c348ade64736f6c6343000807003360806040523480156200001157600080fd5b5060405162001a9038038062001a9083398181016040528101906200003791906200033a565b6040518060400160405280600d81526020017f57616b616e646173546f6b656e000000000000000000000000000000000000008152506040518060400160405280600481526020017f574b4e44000000000000000000000000000000000000000000000000000000008152508160039080519060200190620000bb92919062000273565b508060049080519060200190620000d492919062000273565b505050620000e93382620000f060201b60201c565b5062000537565b600073ffffffffffffffffffffffffffffffffffffffff168273ffffffffffffffffffffffffffffffffffffffff16141562000163576040517f08c379a00000000000000000000000000000000000000000000000000000000081526004016200015a90620003a4565b60405180910390fd5b62000177600083836200026960201b60201c565b80600260008282546200018b9190620003f4565b92505081905550806000808473ffffffffffffffffffffffffffffffffffffffff1673ffffffffffffffffffffffffffffffffffffffff1681526020019081526020016000206000828254620001e29190620003f4565b925050819055508173ffffffffffffffffffffffffffffffffffffffff16600073ffffffffffffffffffffffffffffffffffffffff167fddf252ad1be2c89b69c2b068fc378daa952ba7f163c4a11628f55a4df523b3ef83604051620002499190620003c6565b60405180910390a362000265600083836200026e60201b60201c565b5050565b505050565b505050565b82805462000281906200045b565b90600052602060002090601f016020900481019282620002a55760008555620002f1565b82601f10620002c057805160ff1916838001178555620002f1565b82800160010185558215620002f1579182015b82811115620002f0578251825591602001919060010190620002d3565b5b50905062000300919062000304565b5090565b5b808211156200031f57600081600090555060010162000305565b5090565b60008151905062000334816200051d565b92915050565b600060208284031215620003535762000352620004ef565b5b6000620003638482850162000323565b91505092915050565b60006200037b601f83620003e3565b91506200038882620004f4565b602082019050919050565b6200039e8162000451565b82525050565b60006020820190508181036000830152620003bf816200036c565b9050919050565b6000602082019050620003dd600083018462000393565b92915050565b600082825260208201905092915050565b6000620004018262000451565b91506200040e8362000451565b9250827fffffffffffffffffffffffffffffffffffffffffffffffffffffffffffffffff0382111562000446576200044562000491565b5b828201905092915050565b6000819050919050565b600060028204905060018216806200047457607f821691505b602082108114156200048b576200048a620004c0565b5b50919050565b7f4e487b7100000000000000000000000000000000000000000000000000000000600052601160045260246000fd5b7f4e487b7100000000000000000000000000000000000000000000000000000000600052602260045260246000fd5b600080fd5b7f45524332303a206d696e7420746f20746865207a65726f206164647265737300600082015250565b620005288162000451565b81146200053457600080fd5b50565b61154980620005476000396000f3fe6080604052600436106100e85760003560e01c8063756435531161008a578063a9059cbb11610059578063a9059cbb14610302578063ad6f6dd91461033f578063dd62ed3e1461035b578063e3d670d714610398576100e8565b806375643553146102625780638568523a1461027e57806395d89b411461029a578063a457c2d7146102c5576100e8565b806323b872dd116100c657806323b872dd14610180578063313ce567146101bd57806339509351146101e857806370a0823114610225576100e8565b806306fdde03146100ed578063095ea7b31461011857806318160ddd14610155575b600080fd5b3480156100f957600080fd5b506101026103d5565b60405161010f9190610fe4565b60405180910390f35b34801561012457600080fd5b5061013f600480360381019061013a9190610e2e565b610467565b60405161014c9190610fc9565b60405180910390f35b34801561016157600080fd5b5061016a610485565b60405161017791906110e6565b60405180910390f35b34801561018c57600080fd5b506101a760048036038101906101a29190610ddb565b61048f565b6040516101b49190610fc9565b60405180910390f35b3480156101c957600080fd5b506101d2610587565b6040516101df9190611101565b60405180910390f35b3480156101f457600080fd5b5061020f600480360381019061020a9190610e2e565b610590565b60405161021c9190610fc9565b60405180910390f35b34801561023157600080fd5b5061024c60048036038101906102479190610d6e565b61063c565b60405161025991906110e6565b60405180910390f35b61027c60048036038101906102779190610ddb565b610684565b005b61029860048036038101906102939190610e2e565b610694565b005b3480156102a657600080fd5b506102af6106a3565b6040516102bc9190610fe4565b60405180910390f35b3480156102d157600080fd5b506102ec60048036038101906102e79190610e2e565b610735565b6040516102f99190610fc9565b60405180910390f35b34801561030e57600080fd5b5061032960048036038101906103249190610e2e565b610820565b6040516103369190610fc9565b60405180910390f35b61035960048036038101906103549190610d6e565b61083e565b005b34801561036757600080fd5b50610382600480360381019061037d9190610d9b565b61084d565b60405161038f91906110e6565b60405180910390f35b3480156103a457600080fd5b506103bf60048036038101906103ba9190610d6e565b6108d4565b6040516103cc91906110e6565b60405180910390f35b6060600380546103e490611216565b80601f016020809104026020016040519081016040528092919081815260200182805461041090611216565b801561045d5780601f106104325761010080835404028352916020019161045d565b820191906000526020600020905b81548152906001019060200180831161044057829003601f168201915b5050505050905090565b600061047b6104746108e6565b84846108ee565b6001905092915050565b6000600254905090565b600061049c848484610ab9565b6000600160008673ffffffffffffffffffffffffffffffffffffffff1673ffffffffffffffffffffffffffffffffffffffff16815260200190815260200160002060006104e76108e6565b73ffffffffffffffffffffffffffffffffffffffff1673ffffffffffffffffffffffffffffffffffffffff16815260200190815260200160002054905082811015610567576040517f08c379a000000000000000000000000000000000000000000000000000000000815260040161055e90611066565b60405180910390fd5b61057b856105736108e6565b8584036108ee565b60019150509392505050565b60006012905090565b600061063261059d6108e6565b8484600160006105ab6108e6565b73ffffffffffffffffffffffffffffffffffffffff1673ffffffffffffffffffffffffffffffffffffffff16815260200190815260200160002060008873ffffffffffffffffffffffffffffffffffffffff1673ffffffffffffffffffffffffffffffffffffffff1681526020019081526020016000205461062d9190611138565b6108ee565b6001905092915050565b60008060008373ffffffffffffffffffffffffffffffffffffffff1673ffffffffffffffffffffffffffffffffffffffff168152602001908152602001600020549050919050565b61068f838383610ab9565b505050565b61069f823383610ab9565b5050565b6060600480546106b290611216565b80601f01602080910402602001604051908101604052809291908181526020018280546106de90611216565b801561072b5780601f106107005761010080835404028352916020019161072b565b820191906000526020600020905b81548152906001019060200180831161070e57829003601f168201915b5050505050905090565b600080600160006107446108e6565b73ffffffffffffffffffffffffffffffffffffffff1673ffffffffffffffffffffffffffffffffffffffff16815260200190815260200160002060008573ffffffffffffffffffffffffffffffffffffffff1673ffffffffffffffffffffffffffffffffffffffff16815260200190815260200160002054905082811015610801576040517f08c379a00000000000000000000000000000000000000000000000000000000081526004016107f8906110c6565b60405180910390fd5b61081561080c6108e6565b858584036108ee565b600191505092915050565b600061083461082d6108e6565b8484610ab9565b6001905092915050565b61084a33826001610ab9565b50565b6000600160008473ffffffffffffffffffffffffffffffffffffffff1673ffffffffffffffffffffffffffffffffffffffff16815260200190815260200160002060008373ffffffffffffffffffffffffffffffffffffffff1673ffffffffffffffffffffffffffffffffffffffff16815260200190815260200160002054905092915050565b60006108df8261063c565b9050919050565b600033905090565b600073ffffffffffffffffffffffffffffffffffffffff168373ffffffffffffffffffffffffffffffffffffffff16141561095e576040517f08c379a0000000000000000000000000000000000000000000000000000000008152600401610955906110a6565b60405180910390fd5b600073ffffffffffffffffffffffffffffffffffffffff168273ffffffffffffffffffffffffffffffffffffffff1614156109ce576040517f08c379a00000000000000000000000000000000000000000000000000000000081526004016109c590611026565b60405180910390fd5b80600160008573ffffffffffffffffffffffffffffffffffffffff1673ffffffffffffffffffffffffffffffffffffffff16815260200190815260200160002060008473ffffffffffffffffffffffffffffffffffffffff1673ffffffffffffffffffffffffffffffffffffffff168152602001908152602001600020819055508173ffffffffffffffffffffffffffffffffffffffff168373ffffffffffffffffffffffffffffffffffffffff167f8c5be1e5ebec7d5bd14f71427d1e84f3dd0314c0f7b2291e5b200ac8c7c3b92583604051610aac91906110e6565b60405180910390a3505050565b600073ffffffffffffffffffffffffffffffffffffffff168373ffffffffffffffffffffffffffffffffffffffff161415610b29576040517f08c379a0000000000000000000000000000000000000000000000000000000008152600401610b2090611086565b60405180910390fd5b600073ffffffffffffffffffffffffffffffffffffffff168273ffffffffffffffffffffffffffffffffffffffff161415610b99576040517f08c379a0000000000000000000000000000000000000000000000000000000008152600401610b9090611006565b60405180910390fd5b610ba4838383610d3a565b60008060008573ffffffffffffffffffffffffffffffffffffffff1673ffffffffffffffffffffffffffffffffffffffff16815260200190815260200160002054905081811015610c2a576040517f08c379a0000000000000000000000000000000000000000000000000000000008152600401610c2190611046565b60405180910390fd5b8181036000808673ffffffffffffffffffffffffffffffffffffffff1673ffffffffffffffffffffffffffffffffffffffff16815260200190815260200160002081905550816000808573ffffffffffffffffffffffffffffffffffffffff1673ffffffffffffffffffffffffffffffffffffffff1681526020019081526020016000206000828254610cbd9190611138565b925050819055508273ffffffffffffffffffffffffffffffffffffffff168473ffffffffffffffffffffffffffffffffffffffff167fddf252ad1be2c89b69c2b068fc378daa952ba7f163c4a11628f55a4df523b3ef84604051610d2191906110e6565b60405180910390a3610d34848484610d3f565b50505050565b505050565b505050565b600081359050610d53816114e5565b92915050565b600081359050610d68816114fc565b92915050565b600060208284031215610d8457610d836112a6565b5b6000610d9284828501610d44565b91505092915050565b60008060408385031215610db257610db16112a6565b5b6000610dc085828601610d44565b9250506020610dd185828601610d44565b9150509250929050565b600080600060608486031215610df457610df36112a6565b5b6000610e0286828701610d44565b9350506020610e1386828701610d44565b9250506040610e2486828701610d59565b9150509250925092565b60008060408385031215610e4557610e446112a6565b5b6000610e5385828601610d44565b9250506020610e6485828601610d59565b9150509250929050565b610e77816111a0565b82525050565b6000610e888261111c565b610e928185611127565b9350610ea28185602086016111e3565b610eab816112ab565b840191505092915050565b6000610ec3602383611127565b9150610ece826112bc565b604082019050919050565b6000610ee6602283611127565b9150610ef18261130b565b604082019050919050565b6000610f09602683611127565b9150610f148261135a565b604082019050919050565b6000610f2c602883611127565b9150610f37826113a9565b604082019050919050565b6000610f4f602583611127565b9150610f5a826113f8565b604082019050919050565b6000610f72602483611127565b9150610f7d82611447565b604082019050919050565b6000610f95602583611127565b9150610fa082611496565b604082019050919050565b610fb4816111cc565b82525050565b610fc3816111d6565b82525050565b6000602082019050610fde6000830184610e6e565b92915050565b60006020820190508181036000830152610ffe8184610e7d565b905092915050565b6000602082019050818103600083015261101f81610eb6565b9050919050565b6000602082019050818103600083015261103f81610ed9565b9050919050565b6000602082019050818103600083015261105f81610efc565b9050919050565b6000602082019050818103600083015261107f81610f1f565b9050919050565b6000602082019050818103600083015261109f81610f42565b9050919050565b600060208201905081810360008301526110bf81610f65565b9050919050565b600060208201905081810360008301526110df81610f88565b9050919050565b60006020820190506110fb6000830184610fab565b92915050565b60006020820190506111166000830184610fba565b92915050565b600081519050919050565b600082825260208201905092915050565b6000611143826111cc565b915061114e836111cc565b9250827fffffffffffffffffffffffffffffffffffffffffffffffffffffffffffffffff0382111561118357611182611248565b5b828201905092915050565b6000611199826111ac565b9050919050565b60008115159050919050565b600073ffffffffffffffffffffffffffffffffffffffff82169050919050565b6000819050919050565b600060ff82169050919050565b60005b838110156112015780820151818401526020810190506111e6565b83811115611210576000848401525b50505050565b6000600282049050600182168061122e57607f821691505b6020821081141561124257611241611277565b5b50919050565b7f4e487b7100000000000000000000000000000000000000000000000000000000600052601160045260246000fd5b7f4e487b7100000000000000000000000000000000000000000000000000000000600052602260045260246000fd5b600080fd5b6000601f19601f8301169050919050565b7f45524332303a207472616e7366657220746f20746865207a65726f206164647260008201527f6573730000000000000000000000000000000000000000000000000000000000602082015250565b7f45524332303a20617070726f766520746f20746865207a65726f20616464726560008201527f7373000000000000000000000000000000000000000000000000000000000000602082015250565b7f45524332303a207472616e7366657220616d6f756e742065786365656473206260008201527f616c616e63650000000000000000000000000000000000000000000000000000602082015250565b7f45524332303a207472616e7366657220616d6f756e742065786365656473206160008201527f6c6c6f77616e6365000000000000000000000000000000000000000000000000602082015250565b7f45524332303a207472616e736665722066726f6d20746865207a65726f20616460008201527f6472657373000000000000000000000000000000000000000000000000000000602082015250565b7f45524332303a20617070726f76652066726f6d20746865207a65726f2061646460008201527f7265737300000000000000000000000000000000000000000000000000000000602082015250565b7f45524332303a2064656372656173656420616c6c6f77616e63652062656c6f7760008201527f207a65726f000000000000000000000000000000000000000000000000000000602082015250565b6114ee8161118e565b81146114f957600080fd5b50565b611505816111cc565b811461151057600080fd5b5056fea2646970667358221220ec5996561c69be7cdd0c238ab2fcbdca31284a2d3bcbd48e8004f581dcd9d4d564736f6c63430008070033",
  "immutableReferences": {},
  "source": "// SPDX-License-Identifier: GPL-3.0\n\npragma solidity ^0.8.0;\n\nimport \"./WKND.sol\";\n\ncontract Elections {\n    \n    //Six million residents have access to voting\n    uint256 private totalSupply = 6000000;\n    WKND private wknd;\n    \n    constructor ()  {\n        wknd = new WKND(totalSupply);\n    }\n    \n    //Voter must be registred\n    mapping(address => bool) public registredVoters;\n    //Voter can vote only once \n    mapping(address => bool) private voters;\n    //Every candidate has id and number of votes\n    mapping(uint => uint) private candidates;\n    \n    event newChallenger (\n        uint indexed firstPlace,\n        uint indexed secondPlace,\n        uint indexed thirdPlace\n    );\n    \n    function balance(address a) view public returns(uint){\n        //Number of WKND tokens for voters\n        return wknd.balance(a);\n    }\n    \n    modifier hasEnoughWknd(uint amount) {\n        require(amount > 0 && balance(msg.sender) >= amount, 'Dont have enough WKND tokens');\n        _;\n    }\n    \n    function register() external {\n        require(!registredVoters[msg.sender], \"Already registred voter\");\n        registredVoters[msg.sender] = true;\n        \n        wknd.transferToVoter(msg.sender);\n    }\n    \n    function transferWKNDBetweenVoters(address to, uint amount) hasEnoughWknd(amount) external {\n        wknd.transferBetweenVoters(msg.sender, to, amount);\n    }\n    \n    function vote (uint candidateId, uint amount) hasEnoughWknd(amount) public {\n        \n        require(registredVoters[msg.sender], 'Voter must be registred');\n        require(!voters[msg.sender], 'Voter has already voted');\n        \n        //VOTING\n        candidates[candidateId] = candidates[candidateId] + amount;\n        voters[msg.sender] = true;\n        wknd.transferToOwner(msg.sender, amount);\n        \n        if (checkChallenger(candidateId)) {\n            emit newChallenger(idFirstPlace, idSecondPlace, idThirdPlace);\n        }\n    }\n    \n    uint idFirstPlace;\n    uint idSecondPlace;\n    uint idThirdPlace;\n    \n    uint votesFirstPlace;\n    uint votesSecondPlace;\n    uint votesThirdPlace;\n    \n    function winningCandidates() view external returns(uint, uint, uint){\n        return (idFirstPlace, idSecondPlace, idThirdPlace);\n    }\n    \n    function checkChallenger(uint candidateId) private returns(bool){\n        uint oldFirstPlace = idFirstPlace;\n        uint oldSecondPlace = idSecondPlace;\n        uint oldThirdPlace = idThirdPlace;\n        \n        uint voteCount = candidates[candidateId];\n        updateResults(candidateId, voteCount);\n        \n        if (oldFirstPlace != idFirstPlace ||\n            oldSecondPlace != idSecondPlace ||\n            oldThirdPlace != idThirdPlace\n        ) {\n            return true;\n        }\n        \n        return false;\n    }\n    \n    function updateResults(uint candidateId, uint voteCount) private {\n        if (voteCount > votesFirstPlace) {\n            \n            if (candidateId == idFirstPlace) {\n                updatePlace(1, candidateId, voteCount);\n            } else if (candidateId == idSecondPlace) {\n                changeSecondPlace();\n                updatePlace(1, candidateId, voteCount);\n            } else {\n                changeThirdPlace();\n                changeSecondPlace();\n                updatePlace(1, candidateId, voteCount);\n            }\n            \n        } else if (voteCount > votesSecondPlace) {\n            \n            if (candidateId == idSecondPlace) {\n                updatePlace(2, candidateId, voteCount);\n            } else {\n                changeThirdPlace();\n                updatePlace(2, candidateId, voteCount);\n            }\n            \n        } else if (voteCount > votesThirdPlace) {\n            updatePlace(3, candidateId, voteCount);\n        }\n    }\n    \n    function changeThirdPlace() private {\n        idThirdPlace = idSecondPlace;\n        votesThirdPlace = votesSecondPlace;\n    }\n    \n    function changeSecondPlace() private {\n        idSecondPlace = idFirstPlace;\n        votesSecondPlace = votesFirstPlace;\n    }\n    \n    function updatePlace(uint pos, uint candidateId,uint voteCount) private {\n        if (pos == 1) {\n            idFirstPlace = candidateId;\n            votesFirstPlace = voteCount;\n        } else if (pos == 2) {\n            idSecondPlace = candidateId;\n            votesSecondPlace = voteCount;\n        } else {\n            idThirdPlace = candidateId;\n            votesThirdPlace = voteCount;\n        }    \n    }\n}",
  "sourcePath": "/home/boris/ElectionsWakanda/contracts/Elections.sol",
  "compiler": {
    "name": "solc",
    "version": "0.8.7+commit.e28d00a7.Emscripten.clang"
  },
  "schemaVersion": "3.4.3",
  "updatedAt": "2021-09-24T11:47:02.510Z",
  "networkType": "ethereum",
  "devdoc": {
    "kind": "dev",
    "methods": {},
    "version": 1
  },
  "userdoc": {
    "kind": "user",
    "methods": {},
    "version": 1
  }
}